:020000040000fa
:080000000002040000000000f2
:020000040000fa
:10000800700300007003000070030000700300001c
:10001800700300007003000070030000700300000c
:1000280070030000700300007003000070030000fc
:100038001c1900007003000070030000700300002a
:100048002a3a0000700300007003000070030000eb
:100058007003000070030000241900007003000002
:1000680070030000700300007003000070030000bc
:1000780070030000700300007003000070030000ac
:10008800700300007003000070030000700300009c
:10009800700300007003000070030000700300008c
:1000a800700300007003000070030000b00200003d
:1000b800700300007003000070030000700300006c
:1000c800700300007003000070030000700300005c
:1000d800700300007003000070030000700300004c
:1000e800700300007003000070030000700300003c
:1000f800700300007003000070030000700300002c
:10010800700300007003000070030000700300001b
:10011800700300007003000070030000700300000b
:1001280070030000700300007003000070030000fb
:1001380070030000700300007003000070030000eb
:1001480070030000700300007003000070030000db
:1001580070030000700300007003000070030000cb
:1001680070030000700300007003000070030000bb
:1001780070030000700300007003000070030000ab
:10018800700300007003000070030000700300009b
:10019800700300007003000070030000700300008b
:1001a800700300007003000070030000700300007b
:1001b800700300007003000070030000700300006b
:1001c800700300007003000070030000700300005b
:1001d800700300007003000070030000700300004b
:1001e800700300007003000070030000700300003b
:0801f800700300007003000019
:020000040000fa
:10020800700300007003000070030000700300001a
:10021800700300007003000070030000700300000a
:1002280070030000700300007003000070030000fa
:100238001c19000070030000700300007003000028
:100248002a3a0000700300007003000070030000e9
:100258007003000070030000241900007003000000
:1002680070030000700300007003000070030000ba
:1002780070030000700300007003000070030000aa
:10028800700300007003000070030000700300009a
:10029800700300007003000070030000700300008a
:1002a800700300007003000070030000b00200003b
:1002b800700300007003000070030000700300006a
:1002c800700300007003000070030000700300005a
:1002d800700300007003000070030000700300004a
:1002e800700300007003000070030000700300003a
:1002f800700300007003000070030000700300002a
:100308007003000070030000700300007003000019
:100318007003000070030000700300007003000009
:1003280070030000700300007003000070030000f9
:1003380070030000700300007003000070030000e9
:1003480070030000700300007003000070030000d9
:1003580070030000700300007003000070030000c9
:1003680070030000700300007003000070030000b9
:1003780070030000700300007003000070030000a9
:100388007003000070030000700300007003000099
:100398007003000070030000700300007003000089
:1003a8007003000070030000700300007003000079
:1003b8007003000070030000700300007003000069
:1003c8007003000070030000700300007003000059
:1003d8007003000070030000700300007003000049
:1003e8007003000070030000700300007003000039
:0803f800700300007003000017
:020000040000fa
:100400004f9c20000eff23000e018800000000001a
:1004100000012000200288000c000700a0ae23008d
:100420000100200011000700000020000000e00093
:10043000020032000000020000000000b43102009f
:10044000000000000040da000000fe004440a90067
:10045000400b20000000e0000300320000002000fc
:10046000a00188004440a800000006009101880017
:10047000800078000000eb0015003700e2804000ab
:1004800032a0b4009101ba00e280400032a0b40072
:100490009102ba00e280400032a0b4000002eb00fa
:1004a000472bde00f507b200602ce10004003a00a3
:1004b0000059eb008301e900fdff3e000400370016
:1004c0006128e100010032000082eb000400070017
:1004d0001101ba000200e000e8ff3a000000060047
:1004e0003159ba008301e9000c0032002159ba00e9
:1004f0008301e900080032000400e00003003a0034
:10050000e280400032a0b400f5ff370011d9ba00f4
:100510008301e900faff3a008100e800e180400031
:1005200032a0b400000006002c19040000000000f6
:100530005c19040000000000c42a04000000000050
:10054000c42c040000000000602b04000000000028
:10055000062c040000000000302b04000000000006
:10056000801f7800849fbe000600fa008860a90002
:100570005420800062026200e00f520054003200fa
:100580000a24a900052180000410200004826200d2
:10059000e00f520021003200740482004822de0085
:1005a0007f4262000482fb006622b9008402780068
:1005b0000483200004824200240798002e02900049
:1005c00014029000140798000042eb00044f7800da
:1005d0000c0037001e4078000082fb00e60242005b
:1005e0000408240004824200144278009e02900015
:1005f000844a78001e0290000402e8001407980064
:100600001e4fe8002e029000444290009e4f520080
:10061000f0ff3e002104a9002d00370005218000d5
:100620000420200004826200e00f52002800320003
:10063000a489200014427800e04f520023003a00c1
:1006400064092400144278000440780092e8b7005e
:1006500074092400144278000440780093e8b7003d
:1006600084092400144278000440780094e8b7001c
:1006700094092400144278000440780095e8b700fb
:10068000a4092400144278000440780096e8b700da
:10069000b4092400144278000440780097e8b700b9
:1006a000c4092400144278000440780098e8b70098
:1006b000d4092400144278000440780099e8b70077
:1006c00014c0b300044078009ae8b7002124a900c0
:1006d0000080fa004f02be004f0078000040060084
:1006e0000040da000000fe0003f0a200889fbe0078
:1006f0008a9fbe008c1f78001d0107002401330073
:100700006450e1004f0032006420e10052003200ea
:1007100003826c0007003b000905d0000306d000ef
:10072000820f54000c065d00020039000200320006
:1007300089017800030678008582550004003d0099
:100740000003fd008103fd008502ea008b85420065
:10075000840f720002003b0060001000e08018006f
:100760006011b8000005eb007a28e1000a003900aa
:1007700006007800c75ddd00f707b20087807500ce
:100780002d003700828171000a0178006105600048
:100790008180d1000080d3008502e900f9ff3b0091
:1007a000060440008784480002003b0060041400f7
:1007b000e0841c000988a300070032008a817100d0
:1007c00082817100610164008904d1000884d30032
:1007d0008b05e800170037000978a30013003a00e2
:1007e0000b00e000130034008b05e900080444000e
:1007f00089844c000a4474000978a3000d003a0073
:100800000b00e000070034008b05e90008044400f9
:1008100089844c0001003a000b0020000978a300f5
:10082000f7ff32000001eb00020037008281710007
:100830000a017800930007000cf0a70001f0a00067
:10084000dc0037006420e10002003a00838f6c0076
:10085000dc0033000801be000200be00d5003700f6
:100860000081eb000e013700889fbe008a9fbe000a
:100870008c1f7800be000700c500330003866c00a3
:100880006450e1002e0032006420e10033003200a9
:100890006150e1002f0032006120e10031003200a0
:1008a00085855500eb07b0000900200008042000f2
:1008b000050037000804440089844c000a00310018
:1008c0000603430087834b000001530081815b00d6
:1008d000f8ff33000203be000800a0000804440033
:1008e00089844c00f6ff3900c639dd0083017300ae
:1008f00001003200130020008904d1000884d300d5
:100900000998a300050032000800a7000300a0001a
:100910008904d1000884d3008b05e8008904d10044
:100920000884d3000001eb000281d20055000700cb
:1009300001f0a1000cf0a70001f0a0009d0037001d
:100940006420e1009f0032000801be000200be00ea
:10095000f7ff37006120e1009a0032006000b80024
:10096000f3ff37000000200001f82700f0ff3700f8
:100970001400200082023700f4ff2f0080023700ad
:100980000001be00650007000470a70003f0a1008d
:100990006509b100160032000d0035006828e1003d
:1009a00006003500f0ff2f00f1ff27000300e000f4
:1009b00013003b000100280000000500000040007b
:1009c000818048008502e900fcff3a0008003700fa
:1009d000f88f420002003c008000eb0000000500a0
:1009e0008100d1000080d3008502e800fcff3a00be
:1009f0000300e00002003b0060001000e0801800ef
:100a0000000006000001be00440007000470a700bb
:100a100003f0a10003f8a30013003a006509b10038
:100a200010003200090035006928e100020035009d
:100a300001002800000005000000400081804800ff
:100a40008502e900fcff3a0000000600f88f420032
:100a5000050035008100d1000080d3008502e80048
:100a6000fcff3a00000006008000eb0000000500db
:100a70004f89de00820178005c0237006011b80007
:100a80006a02370081002000618055000b003d00a4
:100a90000b00200061fe2f000100e1001d0034006a
:100aa00082817100610164008904d1000884d3004f
:100ab0000000e800faff3a007100200061006400c5
:100ac000030070000200600009003200610444006d
:100ad000e0844c000988a500050032008b05e80081
:100ae0006808e10002003a008904d1000884d300bc
:100af000f20f20000258e10005003d00c75ddd0057
:100b0000f907b2008980750008007800000006002f
:100b10000bf827008b00780000000500c70ade00f4
:100b2000f107b200f50fb20008003200e1cf420039
:100b3000020032000170a00024000500810f700047
:100b4000010032000408050044000500810f700018
:100b500002003a00140005008502e9000000400090
:100b600081c04800fcff3b000170a000240005008c
:100b70000004be00e9ff07000003be000405be003c
:100b80000200be00e5ff0700844f7500000006006c
:100b90000200be006450e100050036006420e10060
:100ba000020036000968a30001003a000800be00f8
:100bb0000160a0004f0678004f05be004f04be0044
:100bc00000000600f0ff2f00f1ff2700f9ff3700bb
:100bd000889fbe008a9fbe008c1f7800e4ff07003c
:100be000ebff330003866c006450e1002400320008
:100bf0006420e100270032006150e1002200320051
:100c00006120e100210032008b854200eb07b1003a
:100c10000134b800003ab8000804420089844a0050
:100c2000013ab8000030b8008880400009014a004d
:100c300004003300000040008180480002014900a8
:100c40008b05e900c909dd00830170000100320055
:100c500013002000c814de004814dd004709de0040
:100c60001200b200c808de000884700085ff07008b
:100c700001f0a1000cf0a70001f0a000cdff3700ab
:100c80006120e100cfff32000801be000200be007b
:100c9000f7ff37006150e100fcff3a00c9ff370061
:100ca000889fbe008a9fbe008c9fbe008205780090
:100cb0000004be0099ff07000800be006420e100a8
:100cc0000700390002003a00f1ff2700f0ff2f0073
:100cd0000160a00012022000124e8800550037006b
:100ce0006120e10003003a000b00a70001f8230097
:100cf0005000370001f0a10002002100936424009d
:100d00001bff07000800be0004003500b2fd2000f4
:100d1000930c2400f40107000004be000005eb0062
:100d20000b00a6004f0dde0001f0a1000004be0084
:100d300032982f0023ea2300a5ff07000001eb00f3
:100d400003f023000b00a70003f8230067fe070051
:100d50000bff07000000a7000a00a20044ff0700e5
:100d60000b00e000030032000200200003f023002b
:100d70005dfe070001f0a2000006be000200200098
:100d80009304240092ff07000801be0057fe0700ed
:100d9000809fbe000c00be0022a22a00d3a7230021
:100da0008bff07004f01be0050fe07000004be008d
:100db00001f0a1000200200003982300ecfe0700d0
:100dc0000800be00190035000001be0080ff0700ca
:100dd0000006be00b2c52900e36223007cff0700c5
:100de00022222b00f3942b0040fe07000c01be00d2
:100df00077ff0700e273280083c023003bfe070053
:100e00000c01be0072ff070042aa2a00a3e22b00d9
:100e100036fe07000c01be006dff07000801be0092
:100e20006bff07000801be0030fe07000a00a700a4
:100e300001f0a2004f06be004f05be004f04be00e9
:100e4000000006000001eb0095ff37006022b800ab
:100e5000060220000000d0008180d2000482d2006f
:100e60008582d2000000a0000202520083825a0054
:100e7000030031000202420083824a000000a10008
:100e80000603e900f3ff3a0000000600889fbe0059
:100e90008a9fbe003004be002005be00040444004a
:100ea00085844c0006054d0087854d000898be00de
:100eb0000a90be000440e10005c8e10006d0e10050
:100ec00007d8e10002003100680040001008e80087
:100ed0004f05be004f04be00000006001000fa00df
:100ee000889fbe008a9fbe000605be000404be00a7
:100ef0003002be002003be00c4b79f00d5b79f00dc
:100f0000e6b79f00f7b79f000802520089825a0097
:100f10000a035b008b835b0084bf9f0095bf9f002b
:100f2000a6bf9f00b7bf9f000498be000698be00f2
:100f3000110020004fb29700dfb297006fb3970007
:100f4000ffb397000820e10009a8e1000ab0e10022
:100f50000bb8e100010039008000eb0010881000a0
:100f60004f05be004f04be000080fa0000000600de
:100f70001400fa00889fbe008a9fbe008c9fbe00ae
:100f80003f0007000605be000404be000006eb009b
:100f9000ccb79f00bcb79f00acb79f009cb79f0029
:100fa0008cb79f000d0420004fb39700bfb297008d
:100fb000860343002fb29700e00f530004003d006a
:100fc0003d0007000f004000b0ff0700030037009e
:100fd000390007000f004000c0ff0700cfb29700a4
:100fe00095bf9f00e08f5200090035002b000700dd
:100ff00014002000050020006033b80000007200db
:101000008180720002017300838173001c0007005d
:101010000c06e8008d0f5600e3ff3a001fba970058
:10102000e00f520005003d000802be000a03be00aa
:1010300000fe2f000f00400094ff07004faa97000a
:10104000e00f520008003a000fb497009fb49700d9
:101050002fb59700bfb59700d8b79f00e9b79f009d
:10106000fab79f008bbf9f000c0007004f06be0021
:101070004f05be004f04be000080fa0000000600cd
:10108000010007000000060090b79f00a1b79f0075
:10109000b2b79f00c3b79f00000006000100070021
:1010a000000006001fb09700afb097003fb1970057
:1010b000cfb19700000006004f2bde0087037300be
:1010c000a7b79f004f23de00858242008502730090
:1010d00095b79f00ffaa97004f2bde000402420045
:1010e0000402730084b79f006faa97004f23de00ad
:1010f0008582420085027300f5af9f00e9ff07007b
:101100004f18de000402420000027200e4af9f00ac
:10111000e4ff070000004000818048000201490010
:1011200083814900d8ff07000802be000a03be0001
:1011300000fe2f0000000600881f78001800200025
:10114000881f78008aff07008f87e9004f04780026
:1011500000000600801feb0085ff07008f87e90075
:1011600000000600889fbe008a9fbe00e00f50006e
:10117000e08f5800e00f5900e08f59000c003d004f
:101180006044b8006055b8000000540081805c00e5
:1011900002015d0083815d0018002000150007003a
:1011a00008003d00180007000004eb0005003700b0
:1011b0000004eb000f00070002003d0012000700d2
:1011c00018002000dcff0700e00f5400060032008a
:1011d0006022b8006033b8000000520081805a00dd
:1011e00002015b0083815b004f05be004f04be001f
:1011f00000000600e00f5200e08f5a00e00f5b0095
:10120000e08f5b00000006006044b8006055b80045
:101210000402540085825c0006035d0087835d0044
:1012200000000600889fbe008a9fbe008c1f7800c9
:10123000e00f5000e08f5800e00f5900e08f590098
:101240000d003d006044b8006055b8000000540037
:1012500081805c0002015d0083815d001c00200034
:101260000820e10009a8e1000ab0e1000bb8e100a4
:101270000d003d00080037000006eb00e00f5200b3
:10128000e08f5a00e00f5b00e08f5b0006003d003e
:101290006044b8006055b8000402540085825c00c8
:1012a00006035d0087835d00aaff0700e00f56007c
:1012b000060032006022b8006033b800000052001f
:1012c00081805a0002015b0083815b004f06780039
:1012d0004f05be004f04be0000000600889fbe0000
:1012e0008a9fbe008c1f78000006eb00e00f5000c4
:1012f000e08f5800e00f5900e08f590007003d00d3
:101300006044b8006055b8000000540081805c0063
:1013100002015d0083815d001c002000e00f52008f
:10132000e08f5a00e00f5b00e08f5b0007003d009c
:101330006044b8006055b8000402540085825c0027
:1013400006035d0087835d000c00a200b700070064
:10135000e00f5600060032006022b8006033b8008b
:101360000000520081805a0002015b0083815b0013
:101370004f0678004f05be004f04be000000060077
:10138000889fbe008a9fbe00841f7800f8fd07007a
:101390004f00780011003300f0ff2f00838f6c00a6
:1013a00006003b00040565000a00a700080037009e
:1013b00009f0a6001000200008003700820f54003a
:1013c000838f5c00030039001000200001003e0004
:1013d0000000200009f0a7000000ea004f05be0051
:1013e0004f04be000000e00000000600881f7800e7
:1013f000030478000300e00007003d0060001000d7
:10140000e080180060011900e081190002003b0033
:1014100001f02d00030037000400070008f0a700ca
:1014200001f0a0004f04780000000600889fbe0075
:101430008a9fbe0000827000040271000482710065
:10144000260032000004be000200be006011b80099
:101450006b092000950220000182cf000a003900ac
:101460000541b1000082cf00070039000541b100fd
:101470000982cf00040039000541b1000882cf0085
:10148000010039000541b10005425200120032004e
:101490000a003b0082817100610164008100d1007b
:1014a0000080d3008984d3000884d3008b05e80032
:1014b0000442e800f7ff3a00070037000804440040
:1014c00089844c0000004800818048008b05e900b9
:1014d0000442e900f9ff3a006afd07004f05be002b
:1014e0004f04be000000060004002000000037008a
:1014f000889fbe008a9fbe008c1f78004f26dd00ab
:101500009bfd0700a2fd33006120e1004300320093
:101510006250e10041003e003e0039006420e100dd
:101520003c003200058255000f003b000402e80039
:1015300038003a00800f5300818f5b003500340083
:101540000800be0003f0a10001f0a60003f0a00017
:101550000cf0a70065fc070096fd3700060343006a
:1015600087834b000c4646000005530081855b00d5
:10157000020033000a03be000c00a0000402e900d0
:10158000f6ff3b00850578000602430087824b008a
:1015900004003a006000b80009f0a70001f0a000c4
:1015a00084fd37000002520081825a000704e000e7
:1015b000040033000603430087834b008b05e900da
:1015c000faff3700090578000604be000203be00da
:1015d0006011b8002bfd0700e00f5200e08f5a00a9
:1015e0000700350002003c000c08a3000400320094
:1015f0000601be0003f0a0000cf0a7003bfc0700b2
:101600000a85680001f0a1000af0a70001f0a0001f
:1016100068fd37000800be0066fd3700100220009c
:101620000cf0a600104e880066fd3700889fbe00b3
:101630008a9fbe008c9fbe000404b8000506b80057
:101640008904460060854e000606b8000a0546007b
:10165000e0854e000706b8008b054600040eb80072
:10166000890446000a854e00e0854d00050eb8004d
:101670000a0546008b854e00060eb8008b05460015
:101680000416b8000a0546008b854e000516b80002
:101690008b054600041eb8008b0546000800be00fe
:1016a0000a01be004f06be004f05be004f04be003b
:0416b0000000060030
:020000040000fa
:1016b4000401000010010000120100001e010000de
:1016c40020010000020100000c0100000e010000d6
:1016d4001a0100001c0100000001000006010000c6
:1016e4000a01000014010000180100009400000029
:1016f4009400000094000000960000009600000092
:1017040084000000840000008400000086000000c3
:1017140086000000080000008000000000010000b6
:101724000008000000100000f00000009600000017
:101734007cfc000090010000960000000000000006
:10174400e4020000960000007cfc0000840300001a
:101754009600000084030000c40900003a0700005a
:1017640008070000d00700003a070000080700003f
:10177400980800009600000008070000b00400006c
:101784009600000008070000a40600009600000070
:1017940008070000840100008a0100009001000095
:1017a4009601000080010000860100008c01000009
:1017b400920100000003000006080000200200005f
:1017c400300200002802000038020000220200005b
:1017d400320200002402000034020000260200004d
:1017e40036020000010000000000000000000000bc
:1017f40001000000000000000000000000000000e4
:10180400f4010000e803000000000000c409000027
:08181400e803000008070000d2
:020000040000fa
:10181c000800fa00000f78001207980023079800c0
:10182c0031079800d302a800d102a9001e0278004b
:10183c008000eb001e019000ae01900004007800c7
:10184c006c1407001e027800744d88000200200002
:10185c00030024003e009000390d07003e0290006a
:10186c00844d88000080fa00000006000400fa0095
:10187c00000f7800214798001e027800ae429000bd
:10188c00054a78001e027800150020001502980009
:10189c009e0278000042eb00944298002e42900089
:1018ac00e24f420004003a009e02780014c0b300dc
:1018bc00c4429800030037009e0278000042eb00ff
:1018cc00c44298000080fa00000006000400fa00f0
:1018dc00000f7800214798000e82e8008401780000
:1018ec0012c0b30041c0b3001e0078001a020700fa
:1018fc000080fa00000006000400fa0010079800af
:10190c000e0278008401780022c0b30041c2b300fb
:10191c001e009000c60207001e02900014029000e8
:10192c00e00f520003003a000400200005f82b00e1
:10193c000a0037001e027800cfa2de000400be00b1
:10194c0048fc07000002be009258220063e9230005
:10195c000400be009bfc07000002be000400be0099
:10196c000080fa00000006000400fa00100798003e
:10197c008e01780012c0b30081c1b3001e0090002c
:10198c00ab0207001e02900014029000e00f520000
:10199c0002003a0000c2eb00044f78001e427800af
:1019ac000482fb00040078000080fa0000000600ae
:1019bc000400fa001007980014c0b300044f78001c
:1019cc008e01780012c0b30081c1b3001e009000dc
:1019dc00e10107000080fa00000006000400fa0094
:1019ec00100798000042eb00044f78008e0178003d
:1019fc0012c0b30081c1b3001e009000d6010700d5
:101a0c000080fa00000006000400fa00100798009d
:101a1c000e0278008401780022c0b30021c2b3000a
:101a2c001e009000820207001e029000140290001b
:101a3c00e00f520002003a000082eb00040f780025
:101a4c001e027800040078000080fa0000000600f6
:101a5c000400fa00100798000e0278008401780048
:101a6c0022c0b30061c0b3001e00900070020700da
:101a7c001e02900014029000e00f520002003a0087
:101a8c000082eb00040f78001e027800040078003e
:101a9c000080fa00000006000400fa00100798000d
:101aac000e0278008401780022c0b30081c0b3001c
:101abc001e0090005e0207001e02900014029000af
:101acc00e00f520002003a000082eb00040f780095
:101adc001e027800040078000080fa000000060066
:101aec000400fa00000f7800110798000e82e8003d
:101afc008401780022c0b30061c0b3001e007800de
:101b0c00950107000080fa00000006000400fa00ae
:101b1c00000f7800110798000e82e800840178000d
:101b2c0022c0b30081c0b3001e0078008a010700f8
:101b3c000080fa00000006000400fa00100798006c
:101b4c0014c0b300044f78008e01780012c0b300ab
:101b5c0091c1b3001e0090007f0107000080fa00c5
:101b6c00000006000400fa00100798000042eb0089
:101b7c00044f78008e01780012c0b30091c1b300fd
:101b8c001e009000740107000080fa00000006009f
:101b9c000800fa00100798002207980033079800f5
:101bac0002002c00f34724002e009000be00900091
:101bbc0004fc07000002be00020020006339240070
:101bcc000400be0025fb07000002be000400be009e
:101bdc0068fb07000002be0004027800040f7800c6
:101bec009e027800f43f2000848f520003003400e2
:101bfc00f43f2000040f7800050037001e02780027
:101c0c00e00f520002003d000002eb00040f7800d0
:101c1c000e0278008401780022c0b300e1c1b30049
:101c2c001e0090004c0107000080fa000000060026
:101c3c000400fa00100798008e01780012c0b3005f
:101c4c00e1c2b3001e009000f90107001e029000d3
:101c5c0014029000e00f520002003a0000c2eb00a8
:101c6c00044f78001e4278000482fb0004007800c8
:101c7c000080fa00000006000600fa002007980019
:101c8c000002eb00040f78000002eb001407980030
:101c9c000e0278008401780042c0b30061c0b3002a
:101cac002e0090002c0107000080fa0000000600b6
:101cbc000600fa00200798000002eb00040f7800e1
:101ccc00f43f2000140798000e027800840178007d
:101cdc0042c0b30061c0b3002e0090001e0107008b
:101cec000080fa00000006000400fa00000f7800e3
:101cfc00110798009e029000f43f2000848f520040
:101d0c0003003400f43f200014079800060037004d
:101d1c009e02900014c02f00848f520002003d00e0
:101d2c0014c02f00140798001e029000e00f520000
:101d3c0004003d001e029000054020000482520069
:101d4c00140798000e82e8008401780022c0b300ca
:101d5c0001c2b3001e007800ff0007000080fa00eb
:101d6c00000006000600fa00200798000042eb0075
:101d7c00044f78002e029000630242001442780057
:101d8c00634242002447980024c0b30014479800d3
:101d9c00090037001e4290000482fb00ae02900046
:101dac0004824200144278001e4f42001e429000f2
:101dbc000442e800144798009e4290002e42900086
:101dcc0084cf5200f3ff39001ecfea001e42780088
:101ddc00044078000080fa00000006000600fa00bb
:101dec00881f780010079800210798001400200025
:101dfc00040f78002e02900014427800e14f42004c
:101e0c0005003a002e0290000402e800144278000b
:101e1c00e14f4200060032000002eb00040f780094
:101e2c001e029000050420001502980031003700b6
:101e3c002e0290000482e800944278001e0290006a
:101e4c001442780084cf5200060032000002eb00ee
:101e5c00040f78001e029000050420001502980063
:101e6c00240037002e0290006302420014427800d6
:101e7c000482fb0063024200ae0290000482420026
:101e8c00144478002e009000b6ff07000042780042
:101e9c00844f5400060032000002eb00040f78005f
:101eac001e02900005042000150298001100370056
:101ebc002e02900064024200144278009e029000b0
:101ecc00944298002e029000640242001442780062
:101edc000482fb0070026200e00f52000500320029
:101eec000002eb00040f78001e0290000502200097
:101efc00150298001e027800040078004f04780048
:101f0c000080fa00000006001200fa00000f980092
:101f1c000e0a90001442780080c2eb0045479800ee
:101f2c0080c2eb00554798006447980024c0b3006a
:101f3c007447980014c0b300044f98000042eb00a3
:101f4c00144f9800640247000400780085ff0700d6
:101f5c0000427800144f98001400200014079800d9
:101f6c00844d800004007800a60c0700690037003f
:101f7c00d302a9000002eb00040f78000800370020
:101f8c00640247001e02420014427800754d800026
:101f9c0084407800050078004c1307001e0fe80001
:101fac001e027800e50f5200f5ff3400000000001f
:101fbc00744d800004007800c31307000002780001
:101fcc00e00f5200faff3200d302a80003003700e2
:101fdc00744d8000040078005b130700744d800082
:101fec00040078008d13070000027800e00f520007
:101ffc00f7ff3a000e0a900044429000e04f520066
:10200c0044003a000002eb00040f7800844d80007d
:10201c00040078002e0d07001e00370000000000a1
:10202c00744d8000040078007c13070000027800d7
:10203c00e00f520010003a00844d8000040078003c
:10204c000b0d070000027800e00f5200f4ff320085
:10205c000a003700744d8000040078003a13070022
:10206c0000427800ea0247009e824200844a7800cf
:10207c001e0fe8000100370000000000744d8000c6
:10208c00040078006513070000027800e00f52008e
:10209c00f0ff3a001e027800e50f520006003c00eb
:1020ac00844d800004007800f10c070000027800d9
:1020bc00e00f5200d9ff3200844d800004007800fc
:1020cc00eb0c070000027800e00f52000400320015
:1020dc001e0290000402e800140798000d0037005f
:1020ec006a024700840078000e0890003bff07004e
:1020fc0000027800e00f5200030032000002eb00f7
:10210c0014079800030037001e0290000402e80038
:10211c00140798001e029000e00f520003003200da
:10212c001e029000e20f520091ff3400844d80009b
:10213c0004007800630c07001e029000e00f5200b0
:10214c00030032000e0a90008002eb00150298008a
:10215c000080fa00000006008200fa00881f780058
:10216c00603f980061ff980072ff98000387980009
:10217c006efa90008482fb007efa90000482fb00d1
:10218c008482420014032000848f5200010034002a
:10219c00ffff370000c2eb004447980000c2eb0081
:1021ac00544798006e3a90001442780064479800a7
:1021bc007efa9000634242007447980034c0b3002a
:1021cc00044f98006efa9000144f98000002eb0038
:1021dc00040f7800090037001e027800e602420066
:1021ec001e0278000e839000040243001442780013
:1021fc0085024700c44298001e0fe8007efa90004a
:10220c000482fb009e0f5200f3ff3c007efa90000c
:10221c000482fb006604420064024700040078005c
:10222c00d0fe07000042780088024700c4429800a4
:10223c006e3a900015002000150298001400200042
:10224c0014079800844d800004007800ed0b070003
:10225c005d003700d302a9000002eb00040f7800e8
:10226c0008003700640247001e0242001442780046
:10227c00754d8000844078000500780093120700ab
:10228c001e0fe8007efa90000482fb0067024200f9
:10229c009e0f5200f3ff3c0000000000744d8000c4
:1022ac00040078000813070000027800e00f5200c9
:1022bc00faff3200d302a80003003700744d8000ef
:1022cc0004007800a0120700744d80000400780010
:1022dc00d212070000027800e00f5200f7ff3a001c
:1022ec006e3a900044429000e04f520036003a00a3
:1022fc000002eb00040f7800844d8000040078008d
:10230c00730c07000f003700744d80000400780038
:10231c00c212070000027800e00f520009003200e0
:10232c00744d80000400780087120700004278008a
:10233c00050420008e8242009e824200844a78006e
:10234c001e0fe8001e027800e50f520006003c004c
:10235c00844d800004007800450c070000027800d2
:10236c00e00f5200e8ff3200844d8000040078003a
:10237c003f0c070000027800e00f5200040032000e
:10238c001e0290000402e800140798000e003700ab
:10239c00040420000e024200840078006e38900085
:1023ac008efe070000027800e00f5200030032009e
:1023bc000002eb0014079800030037001e02900087
:1023cc000402e800140798001e029000e00f52006f
:1023dc00030032001e029000e20f52009dff3400f9
:1023ec00844d800004007800b60b07001e0290009c
:1023fc00e00f520007003a006e3a90001402900071
:10240c00840278000500a0006e3a90001502980036
:10241c00040037006e3a9000940290006e3a9000df
:10242c00150298004f0478000080fa0000000600a6
:10243c004e00fa004027980021cf980032cf980028
:10244c00632798002eca90008482fb003eca90003d
:10245c000482fb008482420014032000848f52000b
:10246c0001003400ffff370000c2eb004447980026
:10247c0000c2eb00544798004e22900014427800a2
:10248c006447980044c0b3007447980024c0b3005c
:10249c00044f98002eca9000144f98003ecb900029
:1024ac00264f980064024700040078002dfe0700b8
:1024bc0000427800344f98004e2290001500200006
:1024cc00150298001400200014079800844d800019
:1024dc00040078004b0b07005b003700d302a90007
:1024ec000002eb00040f780008003700640247007c
:1024fc001e02420014427800754d80008440780022
:10250c0005007800f11107001e0fe8001e0278008c
:10251c00e70f5200f5ff340000000000744d8000fe
:10252c00040078006812070000027800e00f5200e7
:10253c00faff3200d302a80003003700744d80006c
:10254c000400780000120700744d8000040078002d
:10255c003212070000027800e00f5200f7ff3a0039
:10256c004e22900044429000e04f520036003a0058
:10257c000002eb00040f7800844d8000040078000a
:10258c00d30b07000e003700744d80000400780058
:10259c002212070000027800e00f520008003200ff
:1025ac00744d800004007800e711070000427800a9
:1025bc00ec0247009e824200844a78001e0fe8001d
:1025cc003eca90000482fb00660242009e0f52003d
:1025dc0006003400844d800004007800a40b070032
:1025ec0000027800e00f5200e7ff3200844d8000bb
:1025fc00040078009e0b070000027800e00f5200e8
:10260c00040032001e0290000402e8001407980037
:10261c000d0037006c024700840078004e209000bb
:10262c00eefd070000027800e00f520003003200bc
:10263c000002eb0014079800030037001e02900004
:10264c000402e800140798001e029000e00f5200ec
:10265c00030032001e029000e20f52009fff340074
:10266c00844d800004007800160b07001e029000b9
:10267c00e00f520011003a000002eb00040f78004a
:10268c00090037001e027800ee229000848242007e
:10269c001e0378006502430004024700444a900080
:1026ac00844a78001e0fe8003eca90000482fb00aa
:1026bc009e0f5200f3ff3c00030037004e229000a7
:1026cc008002eb00150298000080fa000000060062
:1026dc000600fa00004f7800110798004247980056
:1026ec00a488200014427800e84f520042003e00bb
:1026fc00a4882000144278000442e80004407800ca
:10270c008ae8b700a4882000144278000482fb00f9
:10271c006622b90084027800048020000482420002
:10272c001e4a7800a4882000144278008482fb00a2
:10273c001e4378000682fb00f67f20000602620032
:10274c00442bdd000500240085024300f67f2000a9
:10275c00060262004222dd009503780036002e004e
:10276c000683630004027300840a7800a4882000a6
:10277c00144278000482fb006622b90084027800bf
:10278c0024802000048242001e009000000a780081
:10279c00a4882000144278000482fb006622b90051
:1027ac00840278004480200004824200ce429000d3
:1027bc00054a7800a4882000144278008482fb002b
:1027cc004e4290006f426200442bdd004500240015
:1027dc00850243000482fb006f02620095037800bf
:1027ec0006ff2f000683630004027300840a78003e
:1027fc000080fa0000000600ffff37000600fa0018
:10280c00004f78001107980042479800b4882000c8
:10281c0014427800ef4f520026003e00b48820008e
:10282c00144278000482fb006622b900840278000e
:10283c0004832000048242001e4a7800b4882000e1
:10284c00144278000482fb006622b90084027800ee
:10285c0024832000048242001e009000000a7800ad
:10286c00b4882000144278000482fb006622b90070
:10287c00840278004483200004824200ce429000ff
:10288c00054a7800b4882000144278009e407800f5
:10289c00044078001b010700b48820001442780023
:1028ac000442e800044078008be8b7000080fa008e
:1028bc0000000600ffff37000000fa0014c0b30050
:1028cc00044078008de8b70009003700d488200058
:1028dc00144278000440780094010700d48820004a
:1028ec00144278000442e800044078008de8b700f8
:1028fc00d588200095427800a488200014427800e6
:10290c0084cf5200f1ff36000080fa000000060070
:10291c000200fa00000f780014c0b30004407800e5
:10292c008ce8b70010003700c488200014427800ef
:10293c000482fb006622b900040278008482e8005d
:10294c000480200004824200140278009e0f520082
:10295c000c003200c4882000144278000442e800c5
:10296c00044078008ce8b700c588200095427800b8
:10297c00a48820001442780084cf5200eaff36006d
:10298c000100370000000000c488200014427800c9
:10299c008482fb00a4882000144278000482fb008f
:1029ac000402e800848f520001003a00ffff370058
:1029bc00c488200014427800044078005b010700b2
:1029cc000080fa00000006000800fa0030079800aa
:1029dc00000000008421800068026200e00f5200b9
:1029ec00fcff3a003e02900014029000140798007d
:1029fc0064002400240798003e02900014427800e2
:102a0c000482fb00f57f200005026200f57f2000a8
:102a1c00050262004222dd000600820035002e0015
:102a2c00850263000482720004008a003e0290005a
:102a3c00444290006f4262000482fb006f0262000d
:102a4c002600820005ff2f008502630004827200bd
:102a5c0024008a000042eb00044f78000b00370082
:102a6c001e02900014427800ae029000844a780056
:102a7c002e0290000402e800240798001e02900029
:102a8c000402e800140798001e4fe8003e02900074
:102a9c00444290009e4f5200f1ff3e003024a800ab
:102aac003004a8003064a8000080fa000000060082
:102abc000200fa00004f78004000200039000700a7
:102acc0000122a00710020004d00070004082800a5
:102adc008421880004082800942188000408280018
:102aec00a421880004082800b42188003420800028
:102afc0004d0a00004e0a00004f0a1003420880061
:102b0c003520800004fe2f00048262000440a000e7
:102b1c003420880004012100442088000004a8000f
:102b2c0084882800042188008488280014218800c7
:102b3c008488280024218800848829003421880076
:102b4c0004002800a42088000002eb00c4208800a8
:102b5c000002eb00d420880084fe2f008421880022
:102b6c009e407800f0c0b300660007000004a90086
:102b7c000c24a80077010700910107000000eb006e
:102b8c00080007000042eb00044078008ae8b70018
:102b9c000042eb00044078008be8b7000080fa009c
:102bac00000006000200fa00000f78000184a80063
:102bbc001e02780004427800674262000482fb0027
:102bcc00670262004822dd0006208000f58f2f008e
:102bdc00850263000482720004208800000000005b
:102bec00042080004522de00674262000482fb0064
:102bfc009e0f5200faff3a000080fa000000060017
:102c0c000600fa00100798002107980004208000a5
:102c1c004522de00674262000482fb00040f78004c
:102c2c0040002000dfff07000164a8008420800022
:102c3c000460a0000470a00084208800ae02900004
:102c4c008402200004aab900040378001e0290003c
:102c5c006022b90004027800040343009e02900035
:102c6c0084022000042ab800050343008602780081
:102c7c000401be0000a025002126200070f80700ea
:102c8c000002be00044278000442e900f443b200a2
:102c9c008482fb00f4032000048262008620800002
:102cac0005fc2f00850263000482720084208800da
:102cbc00942080000430a0000440a0000450a00028
:102ccc009420880012e4a800942080000480a000c6
:102cdc000490a10004a0a0009420880094208000ff
:102cec000400a1000410a1000420a000942088007e
:102cfc0012c4a8001e007800aaff07000080fa008a
:102d0c00000006000400fa002047980031479800a4
:102d1c00042080004522de00674262000482fb0032
:102d2c00040f7800400020009eff07000004a8005c
:102d3c002e4290000482fb00cfa2de00f6002000a1
:102d4c0007002000860f5200878f5a0071003e004a
:102d5c00046001000f003700140037001900370021
:102d6c001e00370023003700280037002d003700e5
:102d7c0032003700370037003c0037004100370085
:102d8c00460037004b003700500037005500370025
:102d9c005a0037003e4290000482fb004522dd00c1
:102dac00042288001404a8005b0037003e42900007
:102dbc000482fb004522dd00242288001424a80094
:102dcc00550037003e4290000482fb004522dd0096
:102ddc00442288001444a8004f0037003e42900063
:102dec000482fb004522dd00642288001464a800e4
:102dfc00490037003e4290000482fb004522dd0072
:102e0c00842288001484a800430037003e429000be
:102e1c000482fb004522dd00a422880014a4a80033
:102e2c003d0037003e4290000482fb004522dd004d
:102e3c00c422880014c4a800370037003e4290001a
:102e4c000482fb004522dd00e422880014e4a80083
:102e5c00310037003e4290000482fb004522dd0029
:102e6c00042388001504a8002b0037003e42900074
:102e7c000482fb004522dd00242388001524a800d1
:102e8c00250037003e4290000482fb004522dd0005
:102e9c00442388001544a8001f0037003e429000d0
:102eac000482fb004522dd00642388001564a80021
:102ebc00190037003e4290000482fb004522dd00e1
:102ecc00842388001584a800130037003e4290002c
:102edc000482fb004522dd00a423880015a4a80071
:102eec000d0037003e4290000482fb004522dd00bd
:102efc00c423880015c4a800070037003e42900088
:102f0c000482fb004522dd00e423880015e4a800c0
:102f1c0001003700000000000004a9001e0078002a
:102f2c0020ff07000080fa00000006000800fa00ed
:102f3c00604798006e4290000482fb006622b90044
:102f4c00040278008482e80004802000048242009d
:102f5c0014027800140798006e4290000482fb0063
:102f6c004422dd00e60242000400240004824200f8
:102f7c00240798000042eb00044f78000b00370048
:102f8c001e02900014427800ae029000844a780031
:102f9c002e0290000402e800240798001e02900004
:102fac000402e800140798001e4fe8006e429000df
:102fbc000482fb006622b90004027800e40242009d
:102fcc000480200004824200144278009e4f52007c
:102fdc00ebff3e006e4290000482fb00cfa2de00ad
:102fec007600200007002000860f5200878f5a00c1
:102ffc0055003e0004600100070037000f00370049
:10300c001800370020003700290037003100370046
:10301c003a00370042003700000000008421800095
:10302c0068026200e00f5200fcff3a003024a80056
:10303c003004a8003064a8004400370000000000f1
:10304c00852180000480200004826200e00f520081
:10305c00fbff3a003124a8003104a8003164a80019
:10306c003a003700000000009421800068026200e2
:10307c00e00f5200fcff3a003224a8003204a800f2
:10308c003264a80031003700000000009521800058
:10309c000480200004826200e00f5200fbff3a0023
:1030ac003324a8003304a8003364a8002700370099
:1030bc0000000000a421800068026200e00f5200b2
:1030cc00fcff3a003424a8003404a8003464a8009f
:1030dc001e00370000000000a521800004802000a5
:1030ec0004826200e00f5200fbff3a003524a80076
:1030fc003504a8003564a800140037000000000057
:10310c00b421800068026200e00f5200fcff3a001c
:10311c003624a8003604a8003664a8000b0037003b
:10312c0000000000b52180000480200004826200b1
:10313c00e00f5200fbff3a003724a8003704a80028
:10314c003764a80001003700000000000080fa007e
:10315c00000006000000fa000002eb00041f8800cb
:10316c0081c3a90081a3a8008183a9008163a90060
:10317c00041c80000440a1000450a000041c880022
:10318c00041c80000400a1000410a100041c880091
:10319c0064042000141c880024442000441c880073
:1031ac0074002000541c88000002eb00241c8800d2
:1031bc0081e3a8009480a8000080fa0000000600bb
:1031cc000000fa000002eb00141f88008dc3a90058
:1031dc008da3a9008d83a9008d63a900641c8000b8
:1031ec000440a1000450a000641c8800641c8000f2
:1031fc000400a1000410a100641c8800240220001b
:10320c00741c880004442000a41c88007400200056
:10321c00b41c88000002eb00841c88008de3a8001d
:10322c0095c0a8000080fa00000006000000fa001b
:10323c008480a9000080fa00004006000000fa001b
:10324c0085c0a9000080fa00004006001000fa00ba
:10325c00000278007107980015002000050f780017
:10326c008002eb00150798008002eb002507980000
:10327c008002eb00350798008002eb0045079800b0
:10328c008002eb00550798008002eb006507980060
:10329c00060009003e1a7800e400b100ee00b1000f
:1032ac00040078000080fa00000006000e00fa000e
:1032bc00881f78000004780044bf2800060009002d
:1032cc00341f7800ee00b100544d8000e20f520024
:1032dc0008003200e30f52000d003200e00f5200e4
:1032ec000f003a000510070024002000544d880000
:1032fc000b003700800f070000027800e10f52002e
:10330c0006003a0034002000544d880004003700b9
:10331c0034002000040f780001003700000000008a
:10332c00060009003e1c7800e800b100ee00b10078
:10333c00080078004f0478000080fa0000000600b6
:10334c000e00fa0010079800210798003207980029
:10335c00430798005407980065079800be02900038
:10336c006e029000048f520002003700041f2f00e1
:10337c001e0f4200847020009e027800848f520041
:10338c00faff3c000200370004e120001e0f42004f
:10339c00848f2f009e027800848f5200faff350034
:1033ac009e0290004e02900004825200f30f4200e5
:1033bc00170035009e0290004e02900004825200cd
:1033cc00f30f520012003c00ae0290005e0290001f
:1033dc0004825200f30f42000d003500ae02900043
:1033ec005e02900004825200f30f520008003c0071
:1033fc001e027800fd0f4200050035001e02780009
:10340c00fd0f520002003c001400200001003700a8
:10341c000002eb00040078000080fa0000000600b7
:10342c000c00fa00000f7800110798002207980092
:10343c003307980044079800550798009e027800bf
:10344c003e02900004825200f30f4200110035003e
:10345c009e0278003e02900004825200f30f52004c
:10346c000c003c009e0290004e0290000482520020
:10347c00f30f4200070035009e0290004e029000b0
:10348c0004825200f30f520002003c001400200092
:10349c00010037000002eb00040078000080fa0005
:1034ac00000006001400fa0070079800010f980045
:1034bc00120f980024002000040f78000082eb000b
:1034cc00440798000082eb00540798000082eb0040
:1034dc0064079800fe0290004e029000848f520008
:1034ec0005003a000002eb00444d88003400200037
:1034fc00040f78006c003700444d8000050020005c
:10350c003600200007002000860f5200878f5a00db
:10351c005f003e0004600100030037000900370023
:10352c003d003700520037007e0090008e0890005e
:10353c001e099000630f070014002000444d880002
:10354c0059003700ec0e0700000278006123b90027
:10355c0054002000050020000602420087824a0029
:10356c009600200007002000860f5200878f5a001b
:10357c0023003e00046001000d0037000c003700f2
:10358c000b0037000a003700090037001c00370019
:10359c00030037001a00370002003700090037001b
:1035ac001c00370024002000444d8800190037000f
:1035bc0034002000444d88000002eb00040f78001a
:1035cc0014003700b40e070000000000ca0e0700fc
:1035dc0000027800e00f5200fcff3a00a60e070034
:1035ec0000000000c40e070000027800e10f52003a
:1035fc00fcff3a000002eb00444d88000500370048
:10360c0034002000444d88000002eb00040f7800c9
:10361c000000000024003700b70e070000027800fd
:10362c00e10f52001d003a0034002000444d880088
:10363c000e82e800040078009f0e07009e019000a7
:10364c002e029000be0290007e0090008e0890002a
:10365c001e0990003aff070000027800e00f5200ac
:10366c0010003a000002eb00040f78000e00370047
:10367c001e027800e00f52000200320034002000dd
:10368c00040f78000002eb00444d88000600370060
:10369c0024002000444d8800030037000000000087
:1036ac0001003700000000001e02780004007800c2
:1036bc000080fa00000006001400fa00889fbe008b
:1036cc008a9fbe0070079800010f9800120f980097
:1036dc0024002000040f7800344d800005002000e9
:1036ec003600200007002000860f5200878f5a00fa
:1036fc009d003e0004600100030037005e003700af
:10370c007e00370093003700680247000400780001
:10371c00690e07004e029000cfa2de000400be002e
:10372c00d0f407000004be001e0a9000cfa2de00f9
:10373c000400be00cbf407000005be006e02900032
:10374c00cfa2de000400be00c6f407000002be00db
:10375c0002fd2000930424000400be0019f50700ac
:10376c000002be0002002000134e24000400be0024
:10377c003af407000002be000400be0035f4070056
:10378c000002be000401be000a00be000df50700d9
:10379c000002be000401be000800be00d0f307000a
:1037ac000002be000400be0072f407000002be005e
:1037bc0004027800440798005e029000cfa2de005d
:1037cc000400be00a7f407000004be001e0a90000f
:1037dc00cfa2de000400be00a2f407000005be006c
:1037ec006e029000cfa2de000400be009df4070024
:1037fc000002be0002fd2000930424000400be0061
:10380c00f0f407000002be0002002000134e24005a
:10381c000400be0011f407000002be000400be004c
:10382c0085f507000002be000401be000a00be00c0
:10383c00e4f407000002be000401be000800be0054
:10384c00a7f307000002be000400be0049f4070005
:10385c000002be0004027800540798001e09900074
:10386c008e0890007e009000690e07001400200066
:10387c00344d8800440037001f0e0700000278000a
:10388c00e20f520005003200e40f52000600320035
:10389c00e10f520013003a001700370024002000fb
:1038ac00344d880014003700fb0d070000000000a9
:1038bc00110e070000027800e00f5200fcff3a00e6
:1038cc00ed0d0700000000000b0e07000002780051
:1038dc00e10f5200fcff3a000002eb00344d88006f
:1038ec000500370034002000344d88000002eb0046
:1038fc00040f78000000000023003700fe0d0700c5
:10390c0000027800e10f52001c003a003400200045
:10391c00344d88000e82e80004007800e60d0700a4
:10392c009e0190002e029000be0290004e0090006e
:10393c00de0090006e01900081fe0700000278000e
:10394c00e00f52000f003a000002eb00040f780069
:10395c000d0037000002eb00344d880034002000cd
:10396c00040f78000800370024002000040f7800b2
:10397c0024002000344d88000300370000000000b4
:10398c0001003700000000001e02780004007800df
:10399c004f05be004f04be000080fa000000060078
:1039ac001400fa00889fbe0070079800010f980061
:1039bc00120f980034002000040f780074003700b8
:1039cc00244d800005002000360020000700200058
:1039dc00860f5200878f5a0063003e00046001007e
:1039ec000300370029003700490037006300370017
:1039fc006802470004007800af0d07006e029000cb
:103a0c00cfa2de000400be0016f407000004be00c6
:103a1c001e0a9000cfa2de000400be0011f40700c5
:103a2c000002be0002fd2000930424000400be002e
:103a3c0064f407000002be0002002000134e2400b4
:103a4c000400be0085f307000002be000401be00a6
:103a5c000800be0022f307000002be000400be00f6
:103a6c00c4f307000002be0004027800640798004b
:103a7c001e0990008e0890007e009000f40d070047
:103a8c0014002000244d8800410037009a0d0700d7
:103a9c0000027800e20f520005003200e40f5200e1
:103aac0006003200e10f520013003a0017003700f5
:103abc0024002000244d880014003700760d0700e8
:103acc00000000008c0d070000027800e00f52008f
:103adc00fcff3a00680d070000000000860d07008f
:103aec0000027800e10f5200fcff3a000002eb00ec
:103afc00244d88000500370034002000244d880038
:103b0c000002eb00040f78000000000020003700da
:103b1c00790d070000027800e10f520019003a00fd
:103b2c0034002000244d88000e82e8000400780048
:103b3c00610d07009e0190002e029000be029000c5
:103b4c004e009000de0090006e019000fcfd07001e
:103b5c0000027800e00f52000c003a000002eb006b
:103b6c00040f78000a00370024002000040f7800ae
:103b7c0024002000244d88000500370000000000c0
:103b8c0003003700000000000100370000000000b7
:103b9c00244d8000e30f520089ff3a001e0278008a
:103bac00040078004f04be000080fa0000000600fc
:103bbc000400fa00000f7800110798001e0278002c
:103bcc00e00f5200030032001e027800fb0f52007f
:103bdc000200360014002000500137001e02900035
:103bec00cfa2de009601200007002000860f5200b5
:103bfc00878f5a0046013e0004600100190037000f
:103c0c00230037002e003700380037004300370000
:103c1c004d00370058003700620037006d00370048
:103c2c0077003700820037008c0037009700370090
:103c3c00a1003700ac003700b6003700c1003700d8
:103c4c00cb003700d6003700e0003700eb00370020
:103c5c00f5003700000137000a0137001501370065
:103c6c001f0137001e027800044278007f42620078
:103c7c000482fb007f0262000636800005fe2f00e6
:103c8c00850263000482720004368800220137002a
:103c9c001e027800044278007f4262000482fb001e
:103cac007f0262004822dd0006368000f50f2e00f0
:103cbc008502630004827200043688001601370006
:103ccc001e027800044278007f4262000482fb00ee
:103cdc007f0262001636800005fe2f00850263000d
:103cec0004827200143688000b0137001e02780023
:103cfc00044278007f4262000482fb007f02620073
:103d0c004822dd0016368000f50f2e008502630078
:103d1c000482720014368800ff0037001e027800ff
:103d2c00044278007f4262000482fb007f02620042
:103d3c002636800005fe2f00850263000482720087
:103d4c0024368800f40037001e0278000442780004
:103d5c007f4262000482fb007f0262004822dd0089
:103d6c0026368000f50f2e00850263000482720057
:103d7c0024368800e80037001e02780004427800e0
:103d8c007f4262000482fb007f02620036368000b4
:103d9c0005fe2f0085026300048272003436880011
:103dac00dd0037001e027800044278007f4262007a
:103dbc000482fb007f0262004822dd003636800060
:103dcc00f50f2e00850263000482720034368800e1
:103ddc00d10037001e027800044278007f42620056
:103dec000482fb007f0262004636800005fe2f0035
:103dfc00850263000482720044368800c6003700d6
:103e0c001e027800044278007f4262000482fb00ac
:103e1c007f0262004822dd0046368000f50f2e003e
:103e2c00850263000482720044368800ba003700b1
:103e3c001e027800044278007f4262000482fb007c
:103e4c007f0262005636800005fe2f00850263005b
:103e5c000482720054368800af0037001e027800ce
:103e6c00044278007f4262000482fb007f02620001
:103e7c004822dd0056368000f50f2e0085026300c7
:103e8c000482720054368800a30037001e027800aa
:103e9c00044278007f4262000482fb007f026200d1
:103eac006636800005fe2f008502630004827200d6
:103ebc0064368800980037001e02780004427800af
:103ecc007f4262000482fb007f0262004822dd0018
:103edc0066368000f50f2e008502630004827200a6
:103eec00643688008c0037001e027800044278008b
:103efc007f4262000482fb007f0262007636800003
:103f0c0005fe2f008502630004827200743688005f
:103f1c00810037001e027800044278007f42620064
:103f2c000482fb007f0262004822dd0076368000ae
:103f3c00f50f2e008502630004827200743688002f
:103f4c00750037001e027800044278007f42620040
:103f5c000482fb007f0262008636800005fe2f0083
:103f6c008502630004827200843688006a00370080
:103f7c001e027800044278007f4262000482fb003b
:103f8c007f0262004822dd0086368000f50f2e008d
:103f9c008502630004827200843688005e0037005c
:103fac001e027800044278007f4262000482fb000b
:103fbc007f0262009636800005fe2f0085026300aa
:103fcc000482720094368800530037001e02780079
:103fdc00044278007f4262000482fb007f02620090
:103fec004822dd0096368000f50f2e008502630016
:103ffc000482720094368800470037001e02780055
:10400c00044278007f4262000482fb007f0262005f
:10401c00a636800005fe2f00850263000482720024
:10402c00a43688003c0037001e0278000442780059
:10403c007f4262000482fb007f0262004822dd00a6
:10404c00a6368000f50f2e008502630004827200f4
:10405c00a4368800300037001e0278000442780035
:10406c007f4262000482fb007f026200b636800051
:10407c0005fe2f008502630004827200b4368800ae
:10408c00250037001e027800044278007f4262004f
:10409c000482fb007f0262004822dd00b6368000fd
:1040ac00f50f2e008502630004827200b43688007e
:1040bc00190037001e027800044278007f4262002b
:1040cc000482fb007f026200c636800005fe2f00d2
:1040dc008502630004827200c43688000e0037002b
:1040ec001e027800044278007f4262000482fb00ca
:1040fc007f0262004822dd00c6368000f50f2e00dc
:10410c008502630004827200c43688000200370006
:10411c0024002000010037000002eb0004007800ae
:10412c000080fa00000006000400fa00000f78007e
:10413c00110798001e029000e00f5200030035009a
:10414c001e029000f90f52000200340024002000df
:10415c00c90037001e0278006123b8000082eb0012
:10416c008082eb000602420087824a00e6002000b3
:10417c0007002000860f5200878f5a00bb003e00bc
:10418c00046001000e0037001800370023003700d0
:10419c002d00370038003700420037004d00370043
:1041ac0057003700610037006c003700760037008d
:1041bc00800037008a003700950037009f003700d9
:1041cc001e029000044278007f4262000482fb00d1
:1041dc007f0262002635800005fe2f0085026300f9
:1041ec000482720024358800a20037001e02900061
:1041fc00044278007f4262000482fb007f0262006e
:10420c004822dd0026358000f50f2e008502630064
:10421c000482720024358800960037001e0290003c
:10422c00044278007f4262000482fb007f0262003d
:10423c003635800005fe2f00850263000482720073
:10424c00343588008b0037001e0290000442780041
:10425c007f4262000482fb007f0262004822dd0084
:10426c0036358000f50f2e00850263000482720043
:10427c00343588007f0037001e029000044278001d
:10428c007f4262000482fb007f02620046358000a0
:10429c0005fe2f00850263000482720044358800fd
:1042ac00740037001e029000044278007f426200c6
:1042bc000482fb007f0262004822dd00463580004c
:1042cc00f50f2e00850263000482720044358800cd
:1042dc00680037001e029000044278007f426200a2
:1042ec000482fb007f0262005635800005fe2f0021
:1042fc008502630004827200543588005d0037002b
:10430c001e029000044278007f4262000482fb008f
:10431c007f0262006635800005fe2f008502630077
:10432c000482720064358800520037001e0290002f
:10433c00044278007f4262000482fb007f0262002c
:10434c004822dd0066358000f50f2e0085026300e3
:10435c000482720064358800460037001e0290000b
:10436c00044278007f4262000482fb007f026200fc
:10437c007635800005fe2f008502630004827200f2
:10438c00743588003b0037001e0290000442780010
:10439c007f4262000482fb007f026200a63580002f
:1043ac0005fe2f008502630004827200a43588008c
:1043bc00300037001e029000044278007f426200f9
:1043cc000482fb007f026200e634800005fe2f00b1
:1043dc008502630004827200e434880025003700f3
:1043ec001e029000044278007f4262000482fb00af
:1043fc007f0262004822dd00e6348000f50f2e00bb
:10440c008502630004827200e434880019003700ce
:10441c001e029000044278007f4262000482fb007e
:10442c007f0262000635800005fe2f0085026300c6
:10443c0004827200043588000e0037001e029000c2
:10444c00044278007f4262000482fb007f0262001b
:10445c004822dd0006358000f50f2e008502630032
:10446c00048272000435880002003700140020001a
:10447c00010037000002eb00040078000080fa0015
:10448c00000006000400fa00889fbe00000f7800b0
:10449c00110798001e027800e00f5200030035004f
:1044ac001e027800e30f520001003400ffff3700ba
:1044bc001e0278007222b900040278008482e8009f
:1044cc00e491200004824200940278001e029000c5
:1044dc00848f520009003c001e0278007222b90041
:1044ec0084027800e4912000048242009402780057
:1044fc001e029000848f520001003d00ffff370028
:10450c001e0278007222b9008402780024922000e6
:10451c00048242009e029000050a78001e02780078
:10452c007222b90004027800e6024200e4912000f5
:10453c00048242001404be001e029000cfa2de00d2
:10454c000400be0047f107000003be001e02780005
:10455c007222b90004027800ee024200e4912000bd
:10456c00048242001402be000401be000600be001c
:10457c0094f107000002be000401be000800be005a
:10458c0057f007000002be001e03e8000401be0045
:10459c00060078007a0607004f04be000080fa007f
:1045ac00000006000200fa00000f78001e027800de
:1045bc00e00f5200030035001e027800e30f52009a
:1045cc0001003400ffff37001e02e8006011b80044
:1045dc00040078006a0607000080fa00000006005c
:1045ec000600fa00889fbe00000f780011079800a3
:1045fc00220798001e027800e00f520003003500dd
:10460c001e027800e30f520001003400ffff370058
:10461c001e029000e00f5200040034009e02900035
:10462c0084162000848f520001003400ffff3700f5
:10463c002e029000e00f520004003400ae029000f5
:10464c0084162000848f520001003400ffff3700d5
:10465c009e0290002e029000848f520001003500c3
:10466c00ffff37001e0278007222b9008402780026
:10467c0004922000048242009e029000050a7800f9
:10468c001e0278007222b90084027800e4912000a6
:10469c0004824200ae029000050a78001e027800e7
:1046ac007222b90004027800ea024200e491200070
:1046bc00048242001403be001e0278007222b9006c
:1046cc0004027800e6024200e491200004824200d9
:1046dc001402be000401be000600be00ffef07007e
:1046ec000002be000404be001e0278007222b90053
:1046fc0084027800e49120000482420014037800c4
:10470c001e0278007222b900040278008482e8004c
:10471c00e491200004824200140278000402530049
:10472c00cfa2de000400be00cef007000002be00e7
:10473c000401be000800be0048f007000002be00e5
:10474c001e0378007233b90086037800c6922000ed
:10475c0006834300048bbe004f04be000080fa00a9
:10476c00000006000a00fa00889fbe00000f7800c7
:10477c001207980023079800340798004507980003
:10478c001e027800e00f5200030035001e02780074
:10479c00e30f520001003400ffff370018c0b300d4
:1047ac006011b8001e009000ae0090006df0070084
:1047bc0000027800e00f5200010034000044eb00ce
:1047cc00e04f54000d003a00c44d8000d54d8000e0
:1047dc0018c0b3000401be001e009000ae00900093
:1047ec0062f0070000027800e00f520001003c006c
:1047fc000044eb00e04f540001003200ffff370093
:10480c0018c0b3006011b8003e009000ce009000bc
:10481c0054f0070000027800e00f52000100340051
:10482c000044eb00e04f54000d003a00c44d8000f2
:10483c00d54d800018c0b3000401be003e009000ae
:10484c00ce00900049f0070000027800e00f520003
:10485c0001003c000044eb00e04f5400010032002a
:10486c00ffff370018c0b3003e019000ce0190004e
:10487c001e009000ae0090003cf007000002780093
:10488c00e00f520001003d000044eb00e04f5400eb
:10489c0001003200ffff37001e0278007222b900bf
:1048ac008402780044922000048242001e0390008f
:1048bc00ae039000068abe001e0278007222b90078
:1048cc008402780084922000048242003e0390000f
:1048dc00ce039000068abe001e0278007222b90038
:1048ec0004027800ea024200e491200004824200b3
:1048fc001403be001e0278007222b9000402780074
:10490c00e6024200e4912000048242001402be0040
:10491c000401be000600be0070ef07000002be00de
:10492c000404be001e0278007222b90084027800d2
:10493c00e491200004824200140378001e027800e7
:10494c007222b900040278008482e800e49120000d
:10495c00048242001402780004025300cfa2de004d
:10496c000400be003ff007000002be000401be00c0
:10497c000800be00b9ef07000002be001e0378005d
:10498c007233b90086037800c69220000683430078
:10499c00048bbe004f04be000080fa00000006002d
:1049ac000a00fa00889fbe001007980021079800a3
:1049bc0032079800430798001e029000e00f520047
:1049cc00030034001e029000e40f5200010034007a
:1049dc00ffff37002e029000e20f5200040032005d
:1049ec002e029000e30f520001003200ffff37004f
:1049fc0018c0b300325c2f0083ea23003e00900005
:104a0c00ce009000d7ef070000027800e00f5200b4
:104a1c00010035000044eb00e04f54000c003a005c
:104a2c0018c0b30002002000031a24003e009000be
:104a3c00ce009000cdef070000027800e00f52008e
:104a4c0001003c000044eb00e04f54000100320038
:104a5c00ffff37003e029000ce029000c44d88004c
:104a6c00d54d88000002eb00040f78005b00370086
:104a7c001e02e8003e019000ce019000ae009000b6
:104a8c00040078008b0407001e0278007222b90023
:104a9c0084027800e491200004824200450b20003f
:104aac00050a78001e0278007222b9008402780090
:104abc0004922000048242008002eb00050a780078
:104acc001e0278007222b900840278002492200021
:104adc00048242008002eb00050a78001e02780076
:104aec007222b90084027800849220000483420070
:104afc000400200005002400048bbe001e02780078
:104b0c007222b9008402780044922000048342008f
:104b1c000400200005f82300048bbe001e02780060
:104b2c007222b90004027800ea024200e4912000eb
:104b3c00048242001403be001e0278007222b900e7
:104b4c0004027800e6024200e49120000482420054
:104b5c001402be000401be000600be00dfee07001a
:104b6c000002be000404be001e0278007222b900ce
:104b7c0084027800e491200004824200140378003f
:104b8c001e0278007222b900040278008482e800c8
:104b9c00e4912000048242001402780004025300c5
:104bac00cfa2de000400be00aeef07000002be0084
:104bbc000401be000800be0028ef07000002be0082
:104bcc001e0378007233b90086037800c692200069
:104bdc0006834300048bbe001e0fe8001e029000eb
:104bec009e027800848f5200a1ff35004f04be0056
:104bfc000080fa00000006001000fa004007980040
:104c0c005107980062079800730798000002eb00a8
:104c1c00040f7800de0290006e02900004825200b5
:104c2c0004f0a7000402ea00fe0290001100090043
:104c3c008402d80000027800cfa2de000400be007f
:104c4c0088ef07000002be001407980025079800a3
:104c5c000200200003f023001e009000ae00900024
:104c6c009fee07000002be000400be0041ef0700eb
:104c7c000002be003407980014002000040f7800d6
:104c8c0026003700de0290006e029000848f5200e6
:104c9c0006003d005e0290001e0242008400780077
:104cac004e009000f7fd0700050037005e029000f3
:104cbc001e025200840078004e009000f1fd0700a7
:104ccc003e02900004007800cf80de0001017800e5
:104cdc008201780004a02500252620006033b8004e
:104cec007bf107000203be000002be000400be0000
:104cfc000601be00843e2000050020006033b80091
:104d0c000af107000203be000002be000402be004e
:104d1c000400be00030c07001e0fe800de0290002a
:104d2c006e0290000482520004f0a7000402ea0014
:104d3c009e0f5200d3ff3c000080fa0000000600da
:104d4c000c00fa00300798004207980053079800af
:104d5c003e029000e00f5200030034003e0290002f
:104d6c00e50f5200020034001400200075003700db
:104d7c0002002400c37124004e009000de0090005d
:104d8c0090ef07000002be000200200003f8230091
:104d9c000400be0051ee07000002be000400be007d
:104dac00f4ee07000002be00048fbe001e02be001f
:104dbc00e00f5200e08f5a0002003c00240020005b
:104dcc0060003700f4ff2f00050020001e03be001a
:104ddc00840f5300858f5b0003003c000002eb0046
:104dec00240798003e00370084ff2f007500200038
:104dfc001e03be00840f5300858f5b000e003c0029
:104e0c0004012000240798001e02be00e00f52008f
:104e1c00e08f5a0002003d0067024200e0824a0027
:104e2c004d2bdd004322de0004027300c3aade001a
:104e3c00048fbe002a00370004fc2f00f50320006d
:104e4c001e03be00840f5300858f5b000e003c00d8
:104e5c0004022000240798001e02be00e00f52003e
:104e6c00e08f5a0002003d00f403b0000580b00052
:104e7c004a2bdd004622de0004027300c6aade00c7
:104e8c00048fbe001600370004f02f00f50f200031
:104e9c001e03be00840f5300858f5b000e003c0088
:104eac0004032000240798001e02be00e00f5200ed
:104ebc00e08f5a0002003d00f40fb0000580b000f6
:104ecc00482bdd004822de0004027300c8aade0075
:104edc00048fbe00020037002400200019003700a8
:104eec003e0290000402e90084024200a4b52800ae
:104efc000482420014027800ae029000050a780089
:104f0c003e0290000402e9008402420044b62800ec
:104f1c0004824200140278009e027800050a780090
:104f2c003e0290000402e90084024200e4b628002c
:104f3c0004824200140278008002eb00050a78001b
:104f4c000002eb00040078000080fa00000006006c
:104f5c000e00fa00881f780040079800520798004e
:104f6c00630798004e029000e60f520005003200d5
:104f7c004e029000e70f5200020032001400200095
:104f8c009c00370002002400c37124005e009000d6
:104f9c00ee0090000bef07000002be0002002000a4
:104fac0003f823000400be00cced07000002be0095
:104fbc00048fbe0018c0b3006011b8001e00be0004
:104fcc0068ee070000027800e00f52000100340088
:104fdc000044eb00e04f540002003200240020009b
:104fec008400370018c0b3000200200003f824002e
:104ffc001e00be005bee070000027800e00f5200be
:10500c00010034000044eb00e04f54000300320078
:10501c000002eb00240798003e00370018c0b300d4
:10502c0002002000031025001e00be004dee0700fc
:10503c0000027800e00f5200010034000044eb0045
:10504c00e04f5400090032000401200024079800ae
:10505c0002002000031024001e00be00ffed07001c
:10506c000002be00048fbe002a00370018c0b30037
:10507c0002002000032825001e00be0039ee0700a8
:10508c0000027800e00f5200010034000044eb00f5
:10509c00e04f54000900320004022000240798005d
:1050ac0002002000032824001e00be00ebed0700c8
:1050bc000002be00048fbe001600370018c0b300fb
:1050cc0002002000033825001e00be0025ee07005c
:1050dc0000027800e00f5200010034000044eb00a5
:1050ec00e04f54000900320004032000240798000c
:1050fc0002002000033824001e00be00d7ed07007c
:10510c000002be00048fbe00020037002400200005
:10511c00380037004e029000e60f520003003a00b0
:10512c0024002000340798000200370044002000bf
:10513c00340798003e0290000402e9008402420009
:10514c00a4b528000482420014027800ae0290003c
:10515c00e8824200050a78003e0290008402420078
:10516c0044b6280004824200140478001e00be00dd
:10517c0021ee07000002be00402ade0005002000e0
:10518c0004027800040c78003e0290000402e9004e
:10519c008402420044b628000482420014047800c1
:1051ac001e00be0014ee07000002be0004027800d0
:1051bc00040c78003e0290000402e90084024200d4
:1051cc00e4b6280004824200140278008002eb004e
:1051dc00050a78003e02900084024200e4b62800e2
:1051ec0004824200140278008002eb00050a780069
:1051fc000002eb00040078004f0478000080fa00f5
:10520c00000006000400fa00100798001e0290002f
:10521c00e00f5200090034001e029000e50f52000e
:10522c00080034001e029000e60f52000500320008
:10523c001e029000e70f5200020032001400200002
:10524c001d0037001e029000e50f520003003c00c9
:10525c001e029000040f7800080037001e02900018
:10526c00e60f520003003a0024002000040f7800df
:10527c000200370044002000040f78001e02e900f1
:10528c0084024200a4b528000482420094027800f3
:10529c001e02e90004034200a4b5280004024300e6
:1052ac001402780014037800040028000402730030
:1052bc00840a78000002eb00040078000080fa00f9
:1052cc00000006000400fa00100798001e0290006f
:1052dc00e00f5200090034001e029000e50f52004e
:1052ec00080034001e029000e60f52000500320048
:1052fc001e029000e70f5200020032001400200042
:10530c001d0037001e029000e50f520003003c0008
:10531c001e029000040f7800080037001e02900057
:10532c00e60f520003003a0024002000040f78001e
:10533c000200370044002000040f78001e02e90030
:10534c0084024200a4b52800048242009402780032
:10535c001e02e90004034200a4b528000402430025
:10536c001402780014037800f4ff27000402630091
:10537c00840a78000002eb00040078000080fa0038
:10538c00000006000600fa0010079800210798009c
:10539c001e029000e00f5200090034001e02900023
:1053ac00e50f5200080034001e029000e60f520078
:1053bc00050032001e029000e70f5200020032007e
:1053cc0014002000270037001e029000e50f520049
:1053dc0003003c001e029000040f78000800370008
:1053ec001e029000e60f520003003a003400200029
:1053fc00040f78000200370054002000040f7800de
:10540c001e02e9008402420084b728000482420094
:10541c00940278001e02e9000403420084b72800bd
:10542c000402430014027800140378001e02e90001
:10543c0084034200c4b8280004824300140278009c
:10544c0004027300840a78001e02e9008402420000
:10545c00a499200004824200ae029000050a780054
:10546c000002eb00040078000080fa000000060047
:10547c000200fa00000f78001e027800e50f5200bf
:10548c0003003c001e027800e00f520001003c00bb
:10549c00ffff37001e02e9008402420024b82800f6
:1054ac000482420014027800940278001e02e90083
:1054bc0004034200c4b8280004024300140278001c
:1054cc0004826200040078000080fa0000000600ec
:1054dc000200fa00000f78001e027800e00f520064
:1054ec00090034001e027800e50f5200070034005a
:1054fc001e027800e60f5200040032001e027800f3
:10550c00e70f520001003200ffff37001e02e900d6
:10551c0084024200e4b6280004824200140278009f
:10552c008002eb00050a78001e02e90084024200aa
:10553c0024b8280004824200940278001e02e9007c
:10554c000403420024b8280004024300140278002b
:10555c00140378001e02e90084034200c4b828003a
:10556c0004824300140278000482ea0004026300ff
:10557c00840a78000080fa00000006000200fa009d
:10558c00881f780000047800010f7800c048800064
:10559c00d1488000e2488000c2f707000002780082
:1055ac00844888000491200006000900341c78000f
:1055bc00e800b100080078004f0478000080fa0081
:1055cc00000006000200fa00881f78000004780032
:1055dc00010f780082f32f00813e2000803e2000d6
:1055ec0035f8070000027800144888002490200049
:1055fc0006000900341c7800e800b10008007800af
:10560c004f0478000080fa00000006000200fa0047
:10561c00881f780000047800010f7800820c2000ad
:10562c00813e2000803e200023f807000002780015
:10563c00a4478800448f200006000900341c780021
:10564c00e800b100080078004f0478000080fa00f0
:10565c00000006000200fa00881f780000047800a1
:10566c00010f78005a090700000000004a090700e2
:10567c0000027800e00f5200fcff3a0070478000f7
:10568c00814780009247800086f70700000278006f
:10569c0034478800648e200006000900341c780012
:1056ac00e800b100080078004f0478000080fa0090
:1056bc00000006000600fa00881f7800000478003d
:1056cc0021079800d4468000040f78002e02900029
:1056dc00e10f420005003a00f40f2000040f78009f
:1056ec0034002000c4468800010037000000000090
:1056fc001e027800e10f52001c003200e10f520034
:10570c0004003900f50f2000850f52002c003200e8
:10571c0033003700705d8400815d8400925d8400ed
:10572c0060f707000002780014079800240020009e
:10573c00c44688001e029000e30f520003003a009a
:10574c0014002000d4468800250037001e0290006b
:10575c00e00f52001f003a000002eb00c446880024
:10576c00f40f2000040f78001d003700a05d8400aa
:10577c00b15d8400c25d84004af707000002780026
:10578c00140798001e029000e30f520004003a0028
:10579c0034002000c4468800f40f2000040f780069
:1057ac001e029000e00f52000c003a004400200052
:1057bc00c4468800f40f2000040f7800080037005e
:1057cc000002eb00040f780034002000c44688006f
:1057dc00030037000000000001003700000000004b
:1057ec00848d200006000900341c7800e800b1000c
:1057fc00080078004f0478000080fa0000000600d2
:10580c000600fa00881f7800000478002107980031
:10581c0064468000040f7800140020005446880071
:10582c001e027800e00f520003003200e10f52001c
:10583c001e00320049003700d05d8400e15d840019
:10584c00f25d840017f70700000278001407980037
:10585c001e029000e30f52000c003a00d70807001c
:10586c00d422a80000000000cb080700000278003a
:10587c00e00f5200fcff3a00140020006446880040
:10588c0014002000040f7800340037001e02900032
:10589c00e00f52002e003a004400200054468800cd
:1058ac00f40f2000040f78002c003700c808070004
:1058bc0000000000b808070000027800e00f52005a
:1058cc00fcff3a00005e8400115e8400225e8400be
:1058dc00f4f6070000027800140798001e029000ee
:1058ec00e30f52000b003a00b40807000000000060
:1058fc00a908070000027800e00f5200fcff3a00f4
:10590c00d422a9003400200054468800f40f200053
:10591c00040f78001e029000e00f52000e003a00b7
:10592c004400200054468800f40f2000040f780037
:10593c00a20807000000000097080700000278008a
:10594c00e00f5200fcff3a00d422a90003003700fc
:10595c00000000000100370000000000a48c2000b3
:10596c0006000900341c7800e800b100080078003b
:10597c004f0478000080fa00000006001200fa00c4
:10598c00881f780000047800010f98000002eb00db
:10599c00040f780014002000e44588000e0a9000e3
:1059ac006123b9001400200005002000060242000b
:1059bc0087824a003600200007002000860f520024
:1059cc00878f5a001a003e00046001000300370064
:1059dc00080037000c00370010003700b40807002f
:1059ec00f40f2000040f780034002000e4458800f8
:1059fc00100037000002eb00040f78002400200098
:105a0c00e44588000b0037000002eb00040f78001f
:105a1c0024002000e44588000600370044002000e4
:105a2c00040f780024002000e445880001003700b2
:105a3c0000000000930037001e02780005002000d3
:105a4c005600200007002000860f5200878f5a0056
:105a5c0083003e0004600100050037002c00370075
:105a6c004900370078003700150037003200370046
:105a7c00b05c8400c15c8400d25c840089f60700b1
:105a8c0000027800140798001e029000e30f5200e9
:105a9c0003003a0014002000040f7800790037004e
:105aac001e029000e00f52006f003a0044002000ec
